:100000000C942E030C9456030C9456030C94560334
:100010000C9456030C9456030C9456030C945603FC
:100020000C9456030C9456030C9456030C945603EC
:100030000C9456030C9456030C9456030C945603DC
:100040000C9456030C9456030C94110B0C94560309
:100050000C9456030C9456030C9456030C945603BC
:100060000C9456030C94560300000000000000009E
:100070000000000000000000001010101010100020
:1000800000101000000000000036244800000000AE
:1000900000000000000000000024247E242424240A
:1000A0007E242400000000000010387C50503814DA
:1000B000147C381000000000002050522408102446
:1000C0004A0A0400000000000018242424182947CC
:1000D0004246390000000000181808100000000017
:1000E0000000000000000000000810102020202068
:1000F00010100800000000000010080804040404A8
:1001000008081000000000000000492A1C7F1C2A7B
:10011000490000000000000000000808087F0808EF
:1001200008000000000000000000000000000000C7
:100130000018180810000000000000000000003C3B
:1001400000000000000000000000000000000000AF
:100150000018180000000000000204040808101035
:100160002020400000000000003C42464A4A525213
:1001700062423C0000000000000818280808080837
:1001800008083E0000000000003C42020408102065
:1001900040407E0000000000003C4202021C0202BF
:1001A00002423C000000000000040C142444447E81
:1001B0000404040000000000007E40407C42020273
:1001C000423C000000000000001C2040407C4242F5
:1001D00042423C0000000000007E020204087E1043
:1001E0001010100000000000003C4242423C42421D
:1001F00042423C0000000000003C424242423E02BB
:1002000002423C000000000000000000001818003E
:10021000001818000000000000000000001818007E
:100220000018180810000000000002040810201038
:10023000080402000000000000000000007E000032
:10024000007E0000000000000000402010080408AC
:100250001020400000000000003C42420204041054
:100260000010100000000000003C4299859DA59EF2
:10027000403E000000000000003C4242427E4242FC
:100280004242420000000000007C4242427C424266
:1002900042427C0000000000003C424040404040A0
:1002A00040423C0000000000007C42424242424288
:1002B00042427C0000000000007E4040407E404002
:1002C00040407E0000000000007E4040407E4040F4
:1002D0004040400000000000003C424240404E428E
:1002E00042423C000000000000424242427E424244
:1002F0004242420000000000003E080808080808CA
:1003000008083E0000000000003E02020202020255
:1003100042423C0000000000004242444870484411
:100320004242420000000000004040404040404047
:1003300040407E00000000000042665A5A4242429D
:100340004242420000000000004262524A464242DD
:100350004242420000000000003C4242424242420F
:1003600042423C0000000000007C4242427C40408F
:100370004040400000000000003C42424242424AED
:100380004A463C0200000000007C4242427C605031
:100390004844420000000000003C4240403C020251
:1003A00002423C0000000000003E0808080808085F
:1003B0000808080000000000024242424242424255
:1003C00042423C00000000000042424242424224BD
:1003D0002418180000000000004242424242425AE3
:1003E0005A664200000000000042424224181824CD
:1003F000424242000000000000424224140808105B
:100400001020200000000000007E020204081020DE
:1004100040407E0000000000001C10101010101062
:1004200010101C00000000000040202010100808E0
:10043000040402000000000000380808080808084A
:100440000808380000000000000814220000000026
:10045000000000000000000000000000000000009C
:100460000000007E0000000000602010000000007E
:100470000000000000000000000000003C023E42BE
:1004800042423E000000000000004040407C4242EA
:1004900042427C000000000000000000003C42409E
:1004A00040423C000000000000000202023A4642C6
:1004B00042423E000000000000000000003C427E7E
:1004C00040423C000000000000001C222020782058
:1004D000202020200000000000000000003C4242DC
:1004E00042463A0222423C0000004040405C6242E8
:1004F00042424200000000000000080800380808DE
:1005000008083E00000000000000000202000E0289
:100510000202020242423C000000004040404448C7
:10052000704844000000000000003808080808086F
:1005300008083E00000000000000000000007649AE
:1005400049494900000000000000000000005C6212
:10055000424242000000000000000000003C424215
:1005600042423C000000000000000000002E6242F9
:1005700042427C404040400000000000003A4642B9
:1005800042423E020202020000000000004C5260A3
:100590004040400000000000000000003C42403CA1
:1005A00002423C00000000000000202020782020B3
:1005B00020221C00000000000000000042424242D5
:1005C000464A3300000000000000000041412222A2
:1005D00014140800000000000000000041414949D7
:1005E00049552200000000000000000041221408CC
:1005F000142241000000000000000000424242427C
:1006000042463A0202423C00000000007E0408100C
:1006100020807E0000000000000C10101010601000
:100620001010100C0000000000080808080808005E
:10063000000808080808080000300808080806082C
:10064000080808300000000000324C0000000000E4
:100650000000000000000000390B400B11241FBEF9
:10066000CFEFD8E0DEBFCDBF11E0A0E0B1E0E8EB16
:10067000F9E102C005900D92A833B107D9F725E042
:10068000A8E3B1E001C01D92A339B207E1F713E07E
:10069000CDE2D3E004C02197FE010E94BA0CCC3217
:1006A000D107C9F70E94FD0A0C94CF0C0C940000EE
:1006B0001092C50083E38093C40088E98093C10051
:1006C0008EE28093C200789408959091C00095FFC7
:1006D000FCCF00008093C60008950F931F93CF9323
:1006E000009771F08C0190E0C1E0C90FF801E90FAB
:1006F000F11D8081882321F00E9465039C2FF4CF97
:10070000CF911F910F9108950E946D038DE00E947B
:1007100065038AE00E946503089508950895E4E65C
:10072000F0E080818B7F808384B1886284B984B15A
:100730008F7E84B98CB580658CBD8DB58DBD0895D7
:10074000000000008EBD0DB407FEFDCF08950E948D
:100750005B060895CF93DF93EC010E94580619863B
:10076000188682E090E09B878A8781E090E09D87F1
:100770008C8786E090E09F878E8780E890E0A0E0FD
:10078000B0E088839983AA83BB8388E291E0A0E0EC
:10079000B0E08C839D83AE83BF83DF91CF910895BA
:1007A000CF93C62F60E0FC0182850E945E068C2FED
:1007B0000E94DA06CF910895CF93C62F61E0FC0125
:1007C00082850E945E068C2F0E94DA06CF910895E2
:1007D000CF93DF93EC018E850E947406813029F45B
:1007E00081E090E00E948A06F6CFDF91CF910895D4
:1007F000CF93DF93EC0160E088850E945E0688EC71
:1008000090E00E948A0661E088850E945E0688EC7E
:1008100090E00E948A06DF91CF9108950F931F9375
:10082000CF93DF938C01DC0151967C936E935097AC
:1008300062E30E94D003C0E0D0E0CE31D1056CF479
:10084000D8015096ED91FC915197EC0FFD1F6081FE
:10085000C8010E94DC032196F0CFDF91CF911F9158
:100860000F9108950F931F93CF93DF93EC018B01AA
:100870000E94E306811155C0198B088BCE010E949E
:10088000F80361E0CE010E94D00367E2CE010E942E
:10089000DC0361E0CE010E94DC0360E0CE010E9437
:1008A000DC036CE0CE010E94D00367EDCE010E9414
:1008B000DC0366EDCE010E94DC036DE9CE010E94EF
:1008C000DC036CE2CE010E94D00368EACE010E94F4
:1008D000DC036AE3CE010E94D0036AE1CE010E94EC
:1008E000DC036BE3CE010E94D00368E0CE010E94DE
:1008F000DC036CE3CE010E94D00363E0CE010E94D2
:10090000DC0361E1CE010E94D00363E0CE010E94CE
:10091000DC0368897989CE010E940E0480E090E0B2
:1009200002C08FEF9FEFDF91CF911F910F9108953C
:10093000CF93DF93EC0162E20E94D00364ECCE011E
:100940000E94DC0360E2CE010E94D0036FEFCE0173
:100950000E94D003CE010E94E803DF91CF91089559
:10096000AF92BF92CF92DF92EF92FF920F931F93BD
:10097000CF93DF93EC016B01A42EB52E790164E4D3
:100980000E94D003B6017595679575956795759525
:100990006795CE010E94DC03B70175956795759543
:1009A000679575956795CE010E94DC0365E4CE01DD
:1009B0000E94D0036A2DCE010E94DC036B2DCE0174
:1009C0000E94DC03602FCE010E94DC03612FCE0168
:1009D0000E94DC03DF91CF911F910F91FF90EF9068
:1009E000DF90CF90BF90AF900895EF92FF920F935A
:1009F0001F93CF93DF93EC018B01E42EF52E6EE471
:100A00000E94D003B80175956795759567957595A2
:100A10006795CE010E94DC036FE4CE010E94D003F3
:100A20006E2DCE010E94DC036F2DCE010E94DC03EF
:100A3000CE010E94E803DF91CF911F910F91FF90AB
:100A4000EF9008952F923F924F925F926F927F9214
:100A50008F929F92AF92BF92CF92DF92EF92FF92CE
:100A60000F931F93CF93DF93CDB7DEB728970FB6C1
:100A7000F894DEBF0FBECDBF1C016115710509F4EE
:100A8000A3C055230CF4A0C011230CF49DC0332344
:100A90000CF49AC0FF200CF497C06A0188EFC822BA
:100AA000DD24280198EF49225524A601440D551D47
:100AB0004A01052E000CAA08BB08D1018D919D9119
:100AC0000D90BC91A02D8D839E83AF83B88788162F
:100AD0009906AA06BB0628F05C01B1E0AB1AB10882
:100AE00004C05A01E1E0AE1AB108A9014E0D5F1D24
:100AF0007A01052E000C000B110BD10114966D909C
:100B00007D908D909C901797E614F70408051905C1
:100B100028F04301B1E08B1A910804C04A01E1E0DA
:100B20008E1A910839017B0184019501A301B60158
:100B3000C1010E94B004A301B601C1010E94F504E5
:100B400064E2C1010E94D0031A821982C40186198D
:100B50009709019629813A8128173907ACF500E0F9
:100B600010E095012C193D092F5F3F4FC9019923D2
:100B70000CF4079695958795959587959595879506
:100B800008171907DCF4C201959587959595879507
:100B900095958795A981BA81A89FF001A99FF00D2D
:100BA000B89FF00D1124E00FF11FEE0DFF1D6081C5
:100BB000C1010E94DC030F5F1F4FD3CFE981FA818F
:100BC0003196FA83E983C2CF28960FB6F894DEBF38
:100BD0000FBECDBFDF91CF911F910F91FF90EF908E
:100BE000DF90CF90BF90AF909F908F907F906F904D
:100BF0005F904F903F902F9008958F929F92AF9269
:100C0000BF92FF920F931F93CF93DF93EC01F62EC9
:100C10000C811D812E813F810150110988819981AC
:100C2000AA81BB819C012150310940E050E060E085
:100C300070E0CE010E94B00440E050E060E070E05F
:100C4000CE010E94F50464E2CE010E94D00300E0D0
:100C500010E088819981AA81BB819C01AD016894D3
:100C600012F856954795379527951694D1F76C81CC
:100C70007D818E819F810E949F0C4801012E000C76
:100C8000AA08BB0886169706A806B90638F46F2D81
:100C9000CE010E94DC030F5F1F4FDBCFDF91CF91AE
:100CA0001F910F91FF90BF90AF909F908F900895EC
:100CB0000E948D0308950E948E03089595B121E04E
:100CC00030E0082E02C0220F331F0A94E2F720956D
:100CD000292325B995B170E002C0660F771F8A9568
:100CE000E2F7692B65B9089593B121E030E0A901DD
:100CF000082E02C0440F551F0A94E2F7292F30E056
:100D000024233523A90102C0559547958A95E2F71A
:100D1000CA0108958F929F92AF92BF92CF92DF92B5
:100D2000EF92FF92BC0180E090E00E947B0B4B01B0
:100D30005C0120E030E04AEF54E40E940A0C6B01B1
:100D40007C0120E030E040E85FE30E94470B88230D
:100D50001CF120E03FEF4FE757E4C701B6010E94C6
:100D6000050C1816A4F420E030E040E251E4C5017F
:100D7000B4010E940A0C0E944C0B6115710589F0A8
:100D800088EC90E00197F1F761507109F6CFC70147
:100D9000B6010E944C0B02C061E070E0CB010197EC
:100DA000F1F7FF90EF90DF90CF90BF90AF909F90C2
:100DB0008F90089595B19D7F95B90E94A00385B14C
:100DC000826085B9089584B1876084B984B18F7BCE
:100DD00084B985B18F7B85B90E948F0380E0089527
:100DE000FC011782168271836083CA01877099277C
:100DF000892B81F0CA01089647705078552334F446
:100E000041505109486F5F6F4F5F5F4FBC01641BDA
:100E1000750BAB0153834283358324830895089572
:100E2000CF93DF9377230CF470C0DC011296ED9121
:100E3000FC9113976E177F070CF067C055230CF4D5
:100E400064C014960D90BC91A02D4A175B070CF05E
:100E50005CC0232B69F1EC0128813981E49FC0013A
:100E6000E59F900DF49F900D1124860F971F9923F5
:100E70000CF4079695958795959587959595879503
:100E8000F901E80FF91F67707078772334F4615027
:100E90007109686F7F6F6F5F7F4F80E890E002C0DD
:100EA000959587956A95E2F79081892B80832DC06F
:100EB000DC012D913C91E49FC001E59F900DF49FD2
:100EC000900D1124860F971F99230CF40796959582
:100ED00087959595879595958795F901E80FF91F61
:100EE00067707078772334F461507109686F7F6F91
:100EF0006F5F7F4F80E890E002C0959587956A9577
:100F0000E2F78095908189238083DF91CF910895C6
:100F1000CF92DF92EF92FF920F931F93CF93DF93C5
:100F20008C016B01E12CF12CF80182819381E81690
:100F3000F906A4F4C0E0D0E0F80184819581C817D7
:100F4000D90744F49601AE01B701C8010E94100709
:100F50002196F2CFFFEFEF1AFF0AE6CFDF91CF9194
:100F60001F910F91FF90EF90DF90CF900895FC01BB
:100F7000808191810895FC018281938108959B0174
:100F800027703327232B89F09B01285F3F4F677021
:100F90007078772334F461507109686F7F6F6F5FE9
:100FA0007F4FA901461B570BBA01FC017383628373
:100FB0000895FC01848195810895FC017583648303
:100FC0000895FC01778366830895CF93DF93FA0138
:100FD000DC0116964D915C91179741155105D1F49E
:100FE00077230CF46AC012964D915C9113976417A5
:100FF00075070CF062C0FF230CF45FC014964D918E
:101000005C911597E417F5070CF057C0AF010E94EB
:10101000100753C041305105D1F477230CF44DC073
:10102000EC014C815D81641775070CF046C0FF230D
:101030000CF443C04A815B81E417F507F4F5DA014B
:10104000AE1BBF0BAB01BD010E94100736C0423082
:101050005105C1F477238CF1EC01AA81BB816A1799
:101060007B075CF5FF234CF14C815D81E417F507AC
:1010700024F5ED01C61BD70BBE014E1B5F0B0E9472
:1010800010071BC043305105C1F47723B4F0DC01D5
:1010900014964D915C9115976417750774F4FF23AE
:1010A00064F012960D90BC91A02DEA17FB072CF46A
:1010B000461B570BBF010E941007DF91CF91089587
:1010C0002F923F924F925F926F927F928F929F9258
:1010D000AF92BF92CF92DF92EF92FF920F931F9346
:1010E000CF93DF932C016B015A011701822F90E0FF
:1010F0008097F80144815581849F9001859F300D30
:10110000949F300D112482819381AC0156954795AF
:10111000569547955695479587709927009711F0F2
:1011200081E090E0840F951F289FA001299F500D1A
:10113000389F500D1124F80180809180840E951EF7
:10114000612C712CF801848195816816790608F06C
:1011500042C0C0E0D0E0F80182819381C817D9076E
:1011600078F5F40144919E0127703078332334F4EC
:1011700021503109286F3F6F2F5F3F4F790180E881
:1011800090E0BC0102C0759567952A95E2F7842F1F
:1011900090E086239723892B51F09101A3014A0DFA
:1011A0005B1DBE016C0D7D1DC2010E94E50777E04D
:1011B000E716F10419F48FEF881A980A2196CBCF1D
:1011C00087709927892B19F0EFEF8E1A9E0AFFEF8F
:1011D0006F1A7F0AB7CFDF91CF911F910F91FF90C8
:1011E000EF90DF90CF90BF90AF909F908F907F90C7
:1011F0006F905F904F903F902F9008954F925F9225
:101200006F927F928F929F92AF92BF92CF92DF9216
:10121000EF92FF920F931F93CF93DF934C01EB015B
:101220005A01390168012701F3012081222381F04D
:1012300072018601A501BE01C4010E946008F60189
:1012400082819381C80FD91FFFEF6F1A7F0AECCFFD
:10125000DF91CF911F910F91FF90EF90DF90CF9092
:10126000BF90AF909F908F907F906F905F904F90C6
:1012700008958F929F92AF92BF92CF92DF92EF929A
:10128000FF920F931F93CF93DF934C017B015A0181
:101290006901EB01C7018C0D9D1DC817D90744F4E6
:1012A0009801A501BE01C4010E94E5072196F2CF75
:1012B000DF91CF911F910F91FF90EF90DF90CF9032
:1012C000BF90AF909F908F9008958F929F92AF9212
:1012D000BF92CF92DF92EF92FF920F931F93CF9323
:1012E000DF934C015B017A016901EA01C7018C0DB2
:1012F0009D1DC817D90744F49801AE01B501C4017A
:101300000E94E5072196F2CFDF91CF911F910F91B7
:10131000FF90EF90DF90CF90BF90AF909F908F9015
:1013200008954F925F926F927F928F929F92AF92A9
:10133000BF92CF92DF92EF92FF920F931F93CF93C2
:10134000DF935C016901E80127016217730714F458
:101350007B0101C079016C157D050CF06B014C1708
:101360005D0714F43A0101C03E014C175D070CF013
:10137000EA0146018E189F088FEF881A980A8201A9
:101380009401A301B701C5010E9439099401AE017E
:10139000B701C5010E943909C619D70921969E01D6
:1013A000A301B701C5010E9465099E01A301B60111
:1013B000C5010E946509DF91CF911F910F91FF90A8
:1013C000EF90DF90CF90BF90AF909F908F907F90E5
:1013D0006F905F904F9008950F931F93CF93DF937B
:1013E000EC018B01019789F46F3F7F4F71F420E08E
:1013F00030E040E050E063E971E08BE891E00E946A
:10140000F00689E791E00E94AA03CD2B59F40F3F23
:101410001F4F41F489E791E00E94A7038BE891E018
:101420000E940F07DF91CF911F910F9108950E94A5
:10143000580366E071E089E791E00E943204892B4D
:1014400029F084E291E00E94840308956FEF89E718
:1014500091E00E94FD0589E791E00E9498046FEFFA
:1014600089E791E00E94FD0589E791E00E949804D8
:1014700066E071E089E791E00E943204892B21F057
:1014800084E291E00E9484030895EF92FF920F930B
:101490001F9360E070E08BE891E00E94E10760E854
:1014A00070E08BE891E00E94BF0760E270E08BE89B
:1014B00091E00E94DD0761E070E08BE891E00E941E
:1014C0008807E12CF12C00E011E028E331E040E056
:1014D00050E060E070E08BE891E00E94FE088BE84D
:1014E00091E00E94D9077C018BE891E00E94BB0744
:1014F0008C018BE891E00E94B70720E030E040E0EB
:1015000050E0BC0189E791E00E94220561E470E0AF
:101510008BE891E00E94BF0761E470E08BE891E006
:101520000E94DD0761E070E08BE891E00E9488078F
:10153000E12CF12C00E410E020E430E040E050E049
:1015400060E070E08BE891E00E9491098BE891E007
:101550000E94D9077C018BE891E00E94BB078C01B7
:101560008BE891E00E94B70724E730E040E250E0CA
:10157000BC0189E791E00E94220589E791E00E9481
:1015800098048BE891E00E94D9077C018BE891E0F8
:101590000E94BB078C018BE891E00E94B70724E70B
:1015A00030E040E250E0BC0189E791E00E94220572
:1015B00089E791E00E94980461E070E08BE891E097
:1015C0000E94880780E0803438F4E82FF0E0E85C7F
:1015D000FE4F10828F5FF7CF1092780180E29EE479
:1015E000009731F0E8ECF0E03197F1F70197F8CF90
:1015F0001F910F91FF90EF9008950E94580366E0AD
:1016000071E089E791E00E943204892B21F084E2A5
:1016100091E00E9484030E94170A0E94450A00007C
:10162000FECF1F920F920FB60F9211242F933F936C
:101630004F935F936F937F938F939F93AF93BF93DA
:10164000EF93FF93F8948091C6000E94650378940D
:10165000FF91EF91BF91AF919F918F917F916F918A
:101660005F914F913F912F910F900FBE0F901F9060
:1016700018956FEF7FEF81E090E00E94EC090895EC
:101680006FEF7FEF80E090E00E94EC0908950E94E8
:10169000B80B08F481E008950E94E40B88F09F578E
:1016A00098F0B92F9927B751B0F0E1F0660F771F86
:1016B000881F991F1AF0BA95C9F714C0B13091F07C
:1016C0000E94FE0BB1E008950C94FE0B672F782F5B
:1016D0008827B85F39F0B93FCCF386957795679541
:1016E000B395D9F73EF490958095709561957F4FAD
:1016F0008F4F9F4F0895E89409C097FB3EF4909553
:101700008095709561957F4F8F4F9F4F9923A9F0DA
:10171000F92F96E9BB279395F69587957795679569
:10172000B795F111F8CFFAF4BB0F11F460FF1BC0AD
:101730006F5F7F4F8F4F9F4F16C0882311F096E940
:1017400011C0772321F09EE8872F762F05C06623EE
:1017500071F096E8862F70E060E02AF09A95660FA7
:10176000771F881FDAF7880F9695879597F9089560
:10177000990F0008550FAA0BE0E8FEEF16161706A2
:10178000E807F907C0F012161306E407F50798F00A
:10179000621B730B840B950B39F40A2661F0232B23
:1017A000242B252B21F408950A2609F4A140A6959F
:1017B0008FEF811D811D089557FD9058440F551FCF
:1017C00059F05F3F71F04795880F97FB991F61F0C3
:1017D0009F3F79F087950895121613061406551F3A
:1017E000F2CF4695F1DF08C0161617061806991FA6
:1017F000F1CF86957105610508940895E894BB279B
:1018000066277727CB0197F908950E94B80B08F453
:101810008FEF08950E941D0C0C948E0C0E94800C7A
:1018200038F00E94870C20F0952311F00C94770C6F
:101830000C947D0C11240C94FF0B0E94DC0B70F3B4
:10184000959FC1F3950F50E0551F629FF001729F65
:10185000BB27F00DB11D639FAA27F00DB11DAA1F74
:10186000649F6627B00DA11D661F829F2227B00DC1
:10187000A11D621F739FB00DA11D621F839FA00D4C
:10188000611D221F749F3327A00D611D231F849F9C
:10189000600D211D822F762F6A2F11249F575040F3
:1018A0009AF0F1F088234AF0EE0FFF1FBB1F661F6E
:1018B000771F881F91505040A9F79E3F510580F037
:1018C0000C94770C0C94FF0B5F3FE4F3983ED4F339
:1018D000869577956795B795F795E7959F5FC1F7DB
:1018E000FE2B880F911D9695879597F9089597F986
:1018F0009F6780E870E060E008959FEF80EC0895B6
:1019000000240A94161617061806090608950024DE
:101910000A9412161306140605060895092E039458
:10192000000C11F4882352F0BB0F40F4BF2B11F4CC
:1019300060FF04C06F5F7F4F8F4F9F4F0895DB01A3
:101940008F939F930E94AF0CBF91AF91A29F800D88
:10195000911DA39F900DB29F900D112408950E9498
:10196000C00CA59F900DB49F900DA49F800D911D5C
:1019700011240895EE0FFF1F0590F491E02D0994B6
:10198000A29FB001B39FC001A39F700D811D1124C0
:10199000911DB29F700D811D1124911D089513E0BA
:1019A000CDE2D3E004C0FE010E94BA0C2196CE32F3
:0819B000D107C9F7F894FFCF3D
:1019B8006800080010000202011112122222666952
:1019C80069595899998800000000F8B413513551A5
:1019D80051190100652D506170657220696E697436
:0819E800206661696C65640072
:00000001FF
