:100000000C9409010C9426010C9426010C942601F1
:100010000C9426010C9463010C9426010C94260187
:100020000C9426010C9426010C9426010C942601B4
:100030000C9426010C9426010C9426010C942601A4
:100040000C9433140C9426010C9426010C94260174
:100050000C9472130C9430130C9426010C9426010A
:100060000C9426010C9426010C9426010C94260174
:100070000C9426010C9426010C9426015072657391
:1000800073206120627574746F6E20746F207374B6
:1000900061727420616761696E0047414D45204F70
:1000A00056455200596F75722046696E616C205337
:1000B000636F7265205761733A2025640043535380
:1000C00045323031302F373230312070726F6A65EF
:1000D0006374206279204761627269656C204C69A3
:1000E00070706961747420343532393637313000BC
:1000F00041737465726F696473004C697665733A15
:10010000202533640053636F72653A202533640001
:100110004C697665733A202533640053636F7265CA
:100120003A202533640091018E018A018601820103
:100130007E017A01760172016E010002FC01F80174
:10014000F401F001EC01E801E401E101DD01D90174
:10015000D501D001CC01C801C401BF01BB01B70169
:10016000B201AE01A901A4019F019A019501649217
:10017000927D6C92926D809EA0C17C92924DE4A281
:10018000A29D182848FF4492926D468A926342FECF
:10019000037C92A27D868A92A2C3E0100E10E1C673
:1001A000281028C7FC021C02FDF8040204F9FC0216
:1001B00002FD8080FE80816492924DFE9098677C63
:1001C000828A7C03FE9090617C82827DFE2010FFFB
:1001D000FE403040FFFE020203FE1028C704020268
:1001E000FD82FE83FE1010FF7C82925DFE90908166
:1001F000FE929283FE82827D7C828245FE92926D87
:100200007E90907F1B5B324A001B5B25643B25641C
:10021000480011241FBECFEFD8E0DEBFCDBF11E0F4
:10022000A0E0B1E0E2E5F1E302C005900D92A03458
:10023000B107D9F722E0A0E4B1E001C01D92AE38C9
:10024000B207E1F70E948A100C94A7180C940000E2
:10025000E8E6F0E0808182608083D99AECE6F0E005
:1002600080818F60808310924001089580914001C9
:1002700018163CF5809141016FB7F89490914001B8
:100280009230B4F021E030E091E0F901EF5BFE4FF5
:100290004081F901E05CFE4F40839F5F292F30E0F1
:1002A00040914001042E000C550B241735076CF3C8
:1002B0009091400191509093400166231CF47894F2
:1002C00008958FEF08951F920F920FB60F92112489
:1002D0002F933F934F935F936F937F938F939F934E
:1002E000EF93FF9343B14F7080E090E0642F70E094
:1002F00020914001243004F59B01082E02C0359561
:1003000027950A94E2F720FF17C02091450130E0BD
:10031000082E02C0359527950A94E2F720FD0CC0FF
:10032000E091400121E02E0F209340010E2E000CA1
:10033000FF0BEF5BFE4F8083019684309105C1F681
:1003400040934501FF91EF919F918F917F916F9124
:100350005F914F913F912F910F900FBE0F901F9083
:10036000189520E1829FC00111246F70862B409167
:100370005401042E000C550B14161506C4F490916C
:100380005901891749F090E00AC0F901E75AFE4F78
:100390002081821304C001C090E0892F08959F5FDF
:1003A000292F30E02417350784F38FEF08958FEF5E
:1003B000089520E1829FC00111246F70862B409127
:1003C0005801042E000C550B14161506C4F4909118
:1003D0005501891749F090E00AC0F901EB5AFE4F28
:1003E0002081821304C001C090E0892F08959F5F8F
:1003F000292F30E02417350784F38FEF08958FEF0E
:1004000008951F93CF93DF93182F90916D018FEF75
:10041000890F482F082E000C550B292F092E000C90
:10042000330B2F5F3F4F24173507E4F0D8E0D91B7B
:10043000C82F883028F4412F6D2F80E00E94DD0501
:1004400081E08C0F90916D01D150482F082E000C47
:10045000550B292F092E000C330B2F5F3F4F24170C
:10046000350734F767E0691B412F81E00E94DD0505
:10047000DF91CF911F91089590E020915401022EB9
:10048000000C330B821793076CF4462FFC01E75ADC
:10049000FE4F8081982F92959F7067E0691B8F7047
:1004A0000E94DD050895CF9380915401181684F4BD
:1004B000C0E060EF8C2F0E943C02CF5F2C2F30E019
:1004C00080915401082E000C990B281739078CF3E2
:1004D000CF910895CF9388230CF1909154018917FF
:1004E000ECF4C82F60E00E943C028C2FCC0F990BDB
:1004F00040915401242F042E000C330B215031095C
:100500008217930744F4F901E75AFE4F2081FC015A
:10051000E75AFE4F2083415040935401CF910895F4
:1005200090E020915801022E000C330B82179307A4
:100530006CF4462FFC01EB5AFE4F8081982F929568
:100540009F7067E0691B8F700E94DD050895CF934F
:10055000882324F190915801891704F5C82F60E091
:100560000E94900281E08C0F282F30E060915801AA
:10057000462F062E000C550B2417350764F4F9019D
:10058000EB5AFE4F9081319790838F5F282F30E098
:1005900024173507A4F3615060935801CF91089553
:1005A0004F925F926F927F92AF92BF92CF92DF9203
:1005B000EF92FF920F931F93CF93DF9383E080938B
:1005C0006D01109258011092540109E511E00F2EAF
:1005D000FDE6AF2EF1E0BF2EF02D0F2EFDE04F2EE9
:1005E000512C612C712CF02D0E9402156B017C01A5
:1005F00027E0C222DD24EE2420E8F222FF2084F44A
:1006000081E0C81AD108E108F108E8EFCE2ADD241C
:10061000DA94ED2CFE2CFFEFCF1ADF0AEF0AFF0A67
:100620000E940215A30192010E949814C3E0C60F14
:100630006C2F8C2D0E94B1018F3FB1F620E1C29E3C
:10064000B0011124CF70C62BF801C1938F018091A6
:1006500054018F5F80935401EA15FB0529F60E942F
:1006600020068FED0E9401020E94530280915801E2
:10067000181684F4C0E06FE08C2F0E949002CF5FC8
:100680002C2F30E080915801082E000C990B281770
:1006900039078CF3DF91CF911F910F91FF90EF906D
:1006A000DF90CF90BF90AF907F906F905F904F9012
:1006B0000895811110C080916D011816ECF480E04E
:1006C0000E94010280916D01815080936D018FED38
:1006D0000E94010211C0813079F480916D01873050
:1006E0005CF480E00E94010280916D018F5F809335
:1006F0006D018FED0E9401028FED0E94010281E0E9
:10070000089580916D010895CF93DF93C0915801B2
:10071000C330E4F4D0916D0162E08D2F0E94D901C5
:100720008F3FB1F481E08C0F80935801EC2FF0E003
:10073000EB5AFE4F20E1D202C00111248260808377
:100740006FE08C2F0E94900281E003C080E001C026
:1007500080E0DF91CF910895CF92DF92EF92FF92E8
:100760006C010E9425140D2C000CEE08FF08C60E2B
:10077000D71EE81EF91E0E9425146C157D058E05F6
:100780009F05C8F3FF90EF90DF90CF9008950E94EF
:100790007C110E947C116B3071058105910538F444
:1007A0008CEB92E0909305018093040108950E94E0
:1007B0007C116A3071058105910570F00E947C11F1
:1007C000653171058105910538F48AE892E09093CE
:1007D00005018093040108950E947C116431710524
:1007E0008105910570F00E947C11693271058105C7
:1007F000910538F486E292E090930501809304011C
:1008000008950E947C11683271058105910570F090
:100810000E947C116D3371058105910538F480E9E2
:1008200091E0909305018093040108950E947C114A
:100830006C3371058105910570F00E947C11613562
:1008400071058105910538F484E690E090930501E7
:100850008093040108950E947C1160357105810523
:10086000910530F082E390E09093050180930401BC
:10087000089580910401909105010895CF930E94FD
:100880000215DC01CB0187709927AA27B078BB231A
:1008900054F40197A109B109886F9F6FAF6FBF6FC3
:1008A0000196A11DB11DC82F6FE00E94B1018F3FBD
:1008B00031F7E091540181E08E0F809354010E2EA8
:1008C000000CFF0BE75AFE4F20E1C29FC00111242C
:1008D0008F6080830E945302CF910895CF93C0917F
:1008E0006D0161E08C2F0E94B1018F3FC9F00E9421
:1008F0006A0281E00E940C110E943E04C3E08FE076
:100900000E94010284E190E00E94AC038FED0E94FE
:10091000010284E190E00E94AC03C15081F743C022
:1009200060E08FEF8C0F0E94B1018F3FC9F00E94F1
:100930006A0281E00E940C110E943E04C3E08FE035
:100940000E94010284E190E00E94AC038FED0E94BE
:10095000010284E190E00E94AC03C15081F723C002
:1009600060E081E08C0F0E94B1018F3FE1F00E94B6
:100970006A0281E00E940C110E943E04C3E08FE0F5
:100980000E9401028FE39CE90197F1F700C000008B
:100990008FED0E9401028FE39CE90197F1F700C0FF
:1009A0000000C15061F7CF910895CF92DF92EF928E
:1009B000FF92CF93DF93809154018823F9F0C9E52A
:1009C000D1E0C12CD12C760189918F708F3029F420
:1009D0008C2D0E946A020E943E048FEFC81AD80A2A
:1009E000E80AF80A80915401082E000C990BAA0B12
:1009F000BB0BC816D906EA06FB0630F3DF91CF9190
:100A0000FF90EF90DF90CF9008958F929F92AF92DA
:100A1000BF92CF92DF92EF92FF92CF93812C912CD5
:100A2000540142C0F401E75AFE4F8081C82FC2959D
:100A3000CF708F70C82ED12CE12CF12C81E0C81A18
:100A4000D108E108F1086C2D8C2F0E94D9018F3F4D
:100A5000C1F460E0882D0E943C02F401E75AFE4F89
:100A6000C295C07F8C2D8F70CC2EC82AC08260EFBB
:100A7000882D0E943C028FEF881A980AA80AB80AAB
:100A800013C06FED882D0E943C02882D0E946A02DF
:100A90000E943E046C2D8C2F0E94D9010E94A70257
:100AA00081E090E00E94D91080915401082E000C42
:100AB000990BAA0BBB0B88169906AA06BB0608F46D
:100AC000B1CF0E9453028FED0E940102CF91FF909F
:100AD000EF90DF90CF90BF90AF909F908F90089550
:100AE000CF92DF92FF920F931F93CF93DF93D0E0CB
:100AF00049C0CD2E0D2E000CDD08F601EB5AFE4F3D
:100B00008081182F1F7001E0010F003121F48D2F1B
:100B10000E94A70237C0C82FC295CF70602F8C2FBC
:100B20000E94B101F82E2FEF821306C0612F8C2F87
:100B30000E94B1018F3F99F08F2D0E946A02612FB0
:100B40008C2F0E94B1010E946A028D2F0E94A70281
:100B500081E090E00E94D9100E943E0413C060E042
:100B60008D2F0E949002F601EB5AFE4F20E1C29FAA
:100B7000C00111240F70802B80836FE08D2F0E94A5
:100B80009002DF5F80915801D8170CF4B2CFDF914B
:100B9000CF911F910F91FF90DF90CF9008950E9409
:100BA000851121E0672B682B692B09F020E0822F4B
:100BB000089580E80E94C51308951F93CF93DF9393
:100BC0008031B0F46830A0F4142FC62FD82F81E004
:100BD0000E94ED136C2F677080E1689F90011124D3
:100BE0008D2F8F70822B0E94ED13812F0E94ED13A9
:100BF000DF91CF911F9108950F931F93CF93DF93B0
:100C0000803190F48B01C82F83E00E94ED138C2F6C
:100C10008F700E94ED13E801085F1F4F89910E94B9
:100C2000ED13C017D107D1F7DF91CF911F910F912D
:100C3000089584E00E94ED1382E00E94ED13089570
:100C40008FE00E94ED1308950E94D9050E942801AB
:100C500040E060E07BE480E090E00E94DD120E94D2
:100C60000D14789408950E9404146AE070E08AE0FC
:100C700090E00E94F31380EF90E09F938F930E9487
:100C800097156CE070E08AE090E00E94F3138DEB22
:100C900090E09F938F930E9497150E9420060F90DB
:100CA0000F900F900F9060EF8FE191E00E94A611DE
:100CB0000DC02FE789EA93E0215080409040E1F792
:100CC00000C000000E9436018F3F29F40E94B51138
:100CD0008111EFCFE8CF089580E480937C0086E80F
:100CE00080937A0008950E94D0020E946C060E94B0
:100CF00004140E9498100E9436010E942B13109237
:100D00007201089586E480937C00EAE7F0E0808138
:100D100080648083808186FDFDCF209178003091B2
:100D200079002D3B42E034075CF481E090E02C3206
:100D3000314014F080E090E09195819591090895FB
:100D400081E090E0089587E480937C00EAE7F0E09A
:100D5000808180648083808186FDFDCF2091780032
:100D60003091790081E090E02935324014F480E040
:100D700090E008959091720181E08927809372013B
:100D800008952F923F924F925F926F927F928F922F
:100D90009F92AF92BF92CF92DF92EF92FF920F930A
:100DA0001F93CF93DF93CDB7DEB764970FB6F89458
:100DB000DEBF0FBECDBF0E9425146B017C010E94D7
:100DC000251469837A838B839C830E9425144B01AD
:100DD0005C010E9425142B013C016D877E878F8763
:100DE000988B89869A86AB86BC8629813A814B810D
:100DF0005C81298B3A8B4B8B5C8BCD82DE82EF82C0
:100E0000F88600E033243A946894222421F80EC135
:100E10000E943601182F8F3F09F012C10E9424133F
:100E2000882309F452C0A8E8B2E08D919C910E94F9
:100E30005915011105C08B3109F4FEC0932D0BC06B
:100E4000013029F48B3509F4F9C0932D04C0023028
:100E500029F4982F832D943411F408C0932D282F52
:100E60002F7D2C3409F0F0C000E001C000E080913B
:100E70007201811132C00E94590327C0803251F49F
:100E800000E001C000E080917201811126C00E9443
:100E900084031BC000E0113011F0923419F40E9459
:100EA000BA0613C0112329F0933419F08F7D8235CF
:100EB00041F480917201811110C081E00E945903B8
:100EC00004C0803511F40E94BA068091720181112C
:100ED00004C00E9425146B017C010E94CF05811182
:100EE00013C08D819E81AF81B8858A569F4FAF4FC9
:100EF000BF4FC816D906EA06FB0630F00E947005FF
:100F0000CD82DE82EF82F8860E946E040E948B11F1
:100F10000E94C70380917201811106C00E942514AE
:100F200069837A838B839C830E94CF05811121C0C2
:100F30000E94390429893A894B895C89280F391F15
:100F4000411D511DDA01C90129813A814B815C8122
:100F5000281739074A075B0760F00E9405050E94C1
:100F6000D50489819A81AB81BC81898B9A8BAB8BAB
:100F7000BC8B80917201811104C00E9425144B0129
:100F80005C010E94CF05811129C089859A85AB85B6
:100F9000BC858A569F4FAF4FBF4F88169906AA0649
:100FA000BB06E0F00E948206019641F480E00E94B8
:100FB000590389869A86AB86BC8610C00E94820639
:100FC000019741F481E00E94590389869A86AB8695
:100FD000BC8604C089869A86AB86BC8680917201E5
:100FE000811104C00E9425142B013C010E94CF05F1
:100FF00081111CC08D859E85AF85B88988539F4F10
:10100000AF4FBF4F481659066A067B0678F00E941C
:10101000A306019739F40E9484034D865E866F868D
:10102000788A04C04D865E866F86788A0E94CF05D6
:10103000882309F4EDCE12C001E047CF022D45CF41
:10104000833009F414CF04C0913409F017CF1ACFBC
:10105000823009F418CF932D832D1DCF64960FB6DF
:10106000F894DEBF0FBECDBFDF91CF911F910F91DE
:10107000FF90EF90DF90CF90BF90AF909F908F90B8
:101080007F906F905F904F903F902F9008956F9258
:101090007F928F929F92AF92BF92CF92DF92EF9208
:1010A000FF920F931F93CF93DF930E9404146CE081
:1010B00070E08AE090E00E94F3130E947C119F93FD
:1010C0008F937F936F9384EA90E09F938F930E9416
:1010D00097156EE070E08AE090E00E94F3138AE9D1
:1010E00090E09F938F930E9497156FE070E08AE0E5
:1010F00090E00E94F3138CE790E09F938F930E94FF
:1011000097150E94BA060E94810319E0612F681B9F
:101110004CE380E00E94DD050E948103D5E06D2F45
:10112000681B4CE380E00E94DD050E948103689407
:10113000EE24E3F86E2D681B4CE381E00E94DD0590
:101140000E9481030F2EF6E0FF2EF02D6F2D681BFD
:101150004CE381E00E94DD050E9481030F2EF7E041
:10116000CF2EF02D6C2D681B4CE382E00E94DD0534
:101170002FEF89EF90E0215080409040E1F700C0D0
:1011800000000E948103612F681B40E080E00E9404
:10119000DD050E9481036D2F681B40E080E00E9406
:1011A000DD050E9481036E2D681B40E081E00E94F6
:1011B000DD050E9481036F2D681B40E081E00E94E5
:1011C000DD050E9481036C2D681B40E082E00E94D7
:1011D000DD050E9481036E2D681B40E080E00E94C7
:1011E000DD050E9481036C2D681B40E080E00E94B9
:1011F000DD050E9481036F2D681B40E080E00E94A6
:10120000DD050E9481036C2D681B40E081E00E9497
:10121000DD050E9481030AE0602F681B4CE380E03B
:101220000E94DD050E948103602F681B4CE381E072
:101230000E94DD050E948103612F681B4CE381E061
:101240000E94DD050E948103612F681B4CE382E050
:101250000E94DD050E9481036E2D681B4CE382E035
:101260000E94DD050E9481036E2D681B4CE383E024
:101270000E94DD050E9481036C2D681B4CE383E016
:101280000E94DD050E9481036F2D681B4CE382E004
:101290000E94DD050E9481036F2D681B4CE383E0F3
:1012A0000E94DD050E9481036D2F681B4CE381E0E5
:1012B0000E94DD050E9481036D2F681B4CE382E0D4
:1012C0000E94DD050E948103C4E06C2F681B4CE383
:1012D00080E00E94DD050E9481036C2F681B4CE3B7
:1012E00081E00E94DD052FEF89EF90E021508040E2
:1012F0009040E1F700C000000E948103602F681B4E
:1013000040E080E00E94DD050E948103602F681BA1
:1013100040E081E00E94DD050E948103612F681B8F
:1013200040E081E00E94DD050E948103612F681B7F
:1013300040E082E00E94DD050E9481036E2D681B63
:1013400040E082E00E94DD050E9481036E2D681B53
:1013500040E083E00E94DD050E9481036C2D681B44
:1013600040E083E00E94DD050E9481036F2D681B31
:1013700040E082E00E94DD050E9481036F2D681B22
:1013800040E083E00E94DD050E9481036D2F681B11
:1013900040E081E00E94DD050E9481036D2F681B03
:1013A00040E082E00E94DD050E9481036C2F681BF3
:1013B00040E080E00E94DD050E9481036C2F681BE5
:1013C00040E081E00E94DD050E9481030F2EFBE0DA
:1013D000BF2EF02D6B2D681B4CE380E00E94DD05D5
:1013E0000E9481036B2D681B4CE381E00E94DD05A8
:1013F0000E9481036B2D681B4CE382E00E94DD0597
:101400000E948103602F681B4CE382E00E94DD058F
:101410000E948103602F681B4CE383E00E94DD057E
:101420000E948103612F681B4CE383E00E94DD056D
:101430000E948103612F681B4CE384E00E94DD055C
:101440000E9481036E2D681B4CE384E00E94DD0541
:101450000E9481036C2D681B4CE384E00E94DD0533
:101460000E9481036F2D681B4CE384E00E94DD0520
:101470000E9481036D2F681B4CE384E00E94DD0510
:101480000E9481036D2F681B4CE383E00E94DD0501
:101490000E9481036C2F681B4CE383E00E94DD05F2
:1014A0000E9481036C2F681B4CE382E00E94DD05E3
:1014B0000E9481030F2EF3E0DF2EF02D6D2D681BAF
:1014C0004CE382E00E94DD050E9481036D2D681BC4
:1014D0004CE381E00E94DD050E9481036D2D681BB5
:1014E0004CE380E00E94DD052FEF89EF90E0215072
:1014F00080409040E1F700C000000E9481036B2D06
:10150000681B40E080E00E94DD050E9481036B2D96
:10151000681B40E081E00E94DD050E9481036B2D85
:10152000681B40E082E00E94DD050E948103602F7D
:10153000681B40E082E00E94DD050E948103602F6D
:10154000681B40E083E00E94DD050E948103612F5B
:10155000681B40E083E00E94DD050E948103612F4B
:10156000681B40E084E00E94DD050E9481036E2D2F
:10157000681B40E084E00E94DD050E9481036C2D21
:10158000681B40E084E00E94DD050E9481036F2D0E
:10159000681B40E084E00E94DD050E9481036D2FFE
:1015A000681B40E084E00E94DD050E9481036D2FEE
:1015B000681B40E083E00E94DD050E9481036C2FE0
:1015C000681B40E083E00E94DD050E9481036C2FD0
:1015D000681B40E082E00E94DD050E9481036D2DC2
:1015E000681B40E082E00E94DD050E9481036D2DB2
:1015F000681B40E081E00E94DD050E9481036D2DA3
:10160000681B40E080E00E94DD050E9481030F2EF0
:10161000FCE09F2EF02D692D681B4CE380E00E94BA
:10162000DD050E948103692D681B4CE381E00E9467
:10163000DD050E948103692D681B4CE382E00E9456
:10164000DD050E948103692D681B4CE383E00E9445
:10165000DD050E9481036B2D681B4CE383E00E9433
:10166000DD050E9481036B2D681B4CE384E00E9422
:10167000DD050E948103602F681B4CE384E00E941B
:10168000DD050E948103602F681B4CE385E00E940A
:10169000DD050E948103612F681B4CE385E00E94F9
:1016A000DD050E9481036E2D681B4CE385E00E94DE
:1016B000DD050E9481036C2D681B4CE385E00E94D0
:1016C000DD050E9481036F2D681B4CE385E00E94BD
:1016D000DD050E9481036D2F681B4CE385E00E94AD
:1016E000DD050E9481036C2F681B4CE385E00E949E
:1016F000DD050E9481036C2F681B4CE384E00E948F
:10170000DD050E9481036D2D681B4CE384E00E947F
:10171000DD050E9481036D2D681B4CE383E00E9470
:10172000DD050E9481036894AA24A1F86A2D681B34
:101730004CE383E00E94DD050E9481036A2D681B53
:101740004CE382E00E94DD050E9481036A2D681B44
:101750004CE381E00E94DD050E9481036A2D681B35
:101760004CE380E00E94DD052FEF89EF90E02150EF
:1017700080409040E1F700C000000E948103692D85
:10178000681B40E080E00E94DD050E948103692D16
:10179000681B40E081E00E94DD050E948103692D05
:1017A000681B40E082E00E94DD050E948103692DF4
:1017B000681B40E083E00E94DD050E9481036B2DE1
:1017C000681B40E083E00E94DD050E9481036B2DD1
:1017D000681B40E084E00E94DD050E948103602FC9
:1017E000681B40E084E00E94DD050E948103602FB9
:1017F000681B40E085E00E94DD050E948103612FA7
:10180000681B40E085E00E94DD050E9481036E2D8B
:10181000681B40E085E00E94DD050E9481036C2D7D
:10182000681B40E085E00E94DD050E9481036F2D6A
:10183000681B40E085E00E94DD050E9481036D2F5A
:10184000681B40E085E00E94DD050E9481036C2F4B
:10185000681B40E085E00E94DD050E9481036C2F3B
:10186000681B40E084E00E94DD050E9481036D2D2D
:10187000681B40E084E00E94DD050E9481036D2D1D
:10188000681B40E083E00E94DD050E9481036A2D11
:10189000681B40E083E00E94DD050E9481036A2D01
:1018A000681B40E082E00E94DD050E9481036A2DF2
:1018B000681B40E081E00E94DD050E9481036A2DE3
:1018C000681B40E080E00E94DD050E948103CDE0BE
:1018D0006C2F681B4CE380E00E94DD050E948103B1
:1018E0006C2F681B4CE381E00E94DD050E948103A0
:1018F0001DE0612F681B4CE382E00E94DD050E9421
:101900008103612F681B4CE383E00E94DD050E9488
:101910008103612F681B4CE384E00E94DD050E9477
:1019200081030F2EFCE0FF2EF02D6F2D681B4CE382
:1019300084E00E94DD050E9481036F2D681B4CE34B
:1019400085E00E94DD050E9481030F2EFBE0DF2E63
:10195000F02D6D2D681B4CE385E00E94DD050E9493
:1019600081036D2D681B4CE386E00E94DD050E941B
:1019700081030F2EFAE06F2EF02D662D681B4CE3CD
:1019800086E00E94DD050E9481030F2EF9E07F2E84
:10199000F02D672D681B4CE386E00E94DD050E9458
:1019A00081036894882483F8682D681B4CE386E0E3
:1019B0000E94DD050E9481030F2EF7E09F2EF02D7F
:1019C000692D681B4CE386E00E94DD050E948103BF
:1019D0000F2EF6E0AF2EF02D6A2D681B4CE386E04B
:1019E0000E94DD050E9481030F2EF5E0BF2EF02D31
:1019F0006B2D681B4CE386E00E94DD050E9481038D
:101A00006894CC24C2F86C2D681B4CE386E00E94DD
:101A1000DD050E9481030F2EF3E0EF2EF02D6E2DD9
:101A2000681B4CE386E00E94DD050E9481036E2D59
:101A3000681B4CE385E00E94DD050E94810302E003
:101A4000602F681B4CE385E00E94DD050E94810346
:101A5000602F681B4CE384E00E94DD050E94810337
:101A6000C1E06C2F681B4CE384E00E94DD050E94FE
:101A700081036C2F681B4CE383E00E94DD050E940C
:101A800081036C2F681B4CE382E00E94DD050E94FD
:101A900081036C2F681B4CE381E00E94DD050E94EE
:101AA00081036C2F681B4CE380E00E94DD052FEF63
:101AB00089EF90E0215080409040E1F700C00000A5
:101AC0000E948103612F681B40E080E00E94DD05D9
:101AD0000E948103612F681B40E081E00E94DD05C8
:101AE0000E948103612F681B40E082E00E94DD05B7
:101AF0000E948103612F681B40E083E00E94DD05A6
:101B00000E948103612F681B40E084E00E94DD0594
:101B10000E9481036F2D681B40E084E00E94DD0578
:101B20000E9481036F2D681B40E085E00E94DD0567
:101B30000E9481036D2D681B40E085E00E94DD0559
:101B40000E9481036D2D681B40E086E00E94DD0548
:101B50000E948103662D681B40E086E00E94DD053F
:101B60000E948103672D681B40E086E00E94DD052E
:101B70000E948103682D681B40E086E00E94DD051D
:101B80000E948103692D681B40E086E00E94DD050C
:101B90000E9481036A2D681B40E086E00E94DD05FB
:101BA0000E9481036B2D681B40E086E00E94DD05EA
:101BB0000E9481036C2D681B40E086E00E94DD05D9
:101BC0000E9481036E2D681B40E086E00E94DD05C7
:101BD0000E9481036E2D681B40E085E00E94DD05B8
:101BE0000E948103602F681B40E085E00E94DD05B4
:101BF0000E948103602F681B40E084E00E94DD05A5
:101C00000E9481036C2F681B40E084E00E94DD0588
:101C10000E9481036C2F681B40E083E00E94DD0579
:101C20000E9481036C2F681B40E082E00E94DD056A
:101C30000E9481036C2F681B40E081E00E94DD055B
:101C40000E9481036C2F681B40E080E00E94DD054C
:101C50000E948103DEE06D2F681B4CE380E00E9450
:101C6000DD050E9481036D2F681B4CE381E00E941B
:101C7000DD050E9481036D2F681B4CE382E00E940A
:101C8000DD050E9481036D2F681B4CE383E00E94F9
:101C9000DD050E9481036D2F681B4CE384E00E94E8
:101CA000DD050E9481036D2F681B4CE385E00E94D7
:101CB000DD050E948103612F681B4CE385E00E94D3
:101CC000DD050E948103612F681B4CE386E00E94C2
:101CD000DD050E9481036F2D681B4CE386E00E94A6
:101CE000DD050E9481036F2D681B4CE387E00E9495
:101CF000DD050E9481036D2D681B4CE387E00E9487
:101D0000DD050E948103662D681B4CE387E00E947D
:101D1000DD050E948103672D681B4CE387E00E946C
:101D2000DD050E948103682D681B4CE387E00E945B
:101D3000DD050E948103692D681B4CE387E00E944A
:101D4000DD050E9481036A2D681B4CE387E00E9439
:101D5000DD050E9481036B2D681B4CE387E00E9428
:101D6000DD050E9481036C2D681B4CE387E00E9417
:101D7000DD050E9481036E2D681B4CE387E00E9405
:101D8000DD050E948103602F681B4CE387E00E9401
:101D9000DD050E948103602F681B4CE386E00E94F2
:101DA000DD050E9481036C2F681B4CE386E00E94D6
:101DB000DD050E9481036C2F681B4CE385E00E94C7
:101DC000DD050E948103682F61954CE385E00E9448
:101DD000DD050E948103682F61954CE384E00E9439
:101DE000DD050E948103682F61954CE383E00E942A
:101DF000DD050E948103682F61954CE382E00E941B
:101E0000DD050E948103682F61954CE381E00E940B
:101E1000DD050E948103682F61954CE380E00E94FC
:101E2000DD052FEF89EF90E0215080409040E1F7F1
:101E300000C000000E9481036D2F681B40E080E01D
:101E40000E94DD050E9481036D2F681B40E081E048
:101E50000E94DD050E9481036D2F681B40E082E037
:101E60000E94DD050E9481036D2F681B40E083E026
:101E70000E94DD050E9481036D2F681B40E084E015
:101E80000E94DD050E9481036D2F681B40E085E004
:101E90000E94DD050E9481036D2F681B40E086E0F3
:101EA0000E94DD050E9481036D2F681B40E087E0E2
:101EB0000E94DD050E948103612F681B40E085E0E0
:101EC0000E94DD050E948103612F681B40E086E0CF
:101ED0000E94DD050E948103612F681B40E087E0BE
:101EE0000E94DD050E9481036F2D681B40E086E0A3
:101EF0000E94DD050E9481036F2D681B40E087E092
:101F00000E94DD050E9481036D2D681B40E087E083
:101F10000E94DD050E948103662D681B40E087E07A
:101F20000E94DD050E948103672D681B40E087E069
:101F30000E94DD050E948103682D681B40E087E058
:101F40000E94DD050E948103692D681B40E087E047
:101F50000E94DD050E9481036A2D681B40E087E036
:101F60000E94DD050E9481036B2D681B40E087E025
:101F70000E94DD050E9481036C2D681B40E087E014
:101F80000E94DD050E9481036E2D681B40E087E002
:101F90000E94DD050E948103602F681B40E087E0FE
:101FA0000E94DD050E9481036C2F681B40E087E0E2
:101FB0000E94DD050E948103602F681B40E086E0DF
:101FC0000E94DD050E9481036C2F681B40E086E0C3
:101FD0000E94DD050E9481036C2F681B40E085E0B4
:101FE0000E94DD050E948103682F619540E087E033
:101FF0000E94DD050E948103682F619540E086E024
:102000000E94DD050E948103682F619540E085E014
:102010000E94DD050E948103682F619540E084E005
:102020000E94DD050E948103682F619540E083E0F6
:102030000E94DD050E948103682F619540E082E0E7
:102040000E94DD050E948103682F619540E081E0D8
:102050000E94DD050E948103682F619540E080E0C9
:102060000E94DD058DB79EB70A960FB6F8949EBF05
:102070000FBE8DBFD8E023C00E9481036C2F681B68
:102080004CE38D2F0E94DD05CF5FCF30A9F79FEF86
:1020900029EF80E0915020408040E1F700C000002F
:1020A000C0E00E9481036C2F681B40E08D2F0E94CE
:1020B000DD05CF5FCF30A9F7DF5FD13111F0CFEF72
:1020C000DBCF0E9420066FE085E391E00E94A6111D
:1020D0000DC09FE729EA83E0915020408040E1F75E
:1020E00000C000000E9436018F3F29F40E94B51104
:1020F0008111EFCFE8CFDF91CF911F910F91FF902A
:10210000EF90DF90CF90BF90AF909F908F907F9097
:102110006F9008950E9424060E9433060E94730661
:102120000E94C1060E944708F9CF80914701089597
:1021300010926E0110926F01109270011092710155
:1021400084E0809373016AE070E089E190E00E948E
:10215000F313809171018F93809170018F9380911F
:102160006F018F9380916E018F938BE191E09F932C
:102170008F930E9497156CE070E089E190E00E94D7
:10218000F313809173011F921F921F928F9380E12E
:1021900091E09F938F930E94971581E08093470170
:1021A0008DB79EB70C960FB6F8949EBF0FBE8DBF2D
:1021B000089540916E0150916F016091700170918E
:1021C0007101480F591F611D711D40936E0150939D
:1021D0006F0160937001709371016AE070E089E1B2
:1021E00090E00E94F313809171018F9380917001B0
:1021F0008F9380916F018F9380916E018F9385E013
:1022000091E09F938F930E9497150F900F900F90DE
:102210000F900F900F90089590917301981B9093D9
:1022200073016CE070E089E190E00E94F31380910B
:1022300073011F921F921F928F938AEF90E09F93DA
:102240008F930E9497150F900F900F900F900F9003
:102250000F900895CF92DF92EF92FF92CF93C82F05
:102260008FEF87B9539AC11114C060916E017091BC
:102270006F0180917001909171012AE030E040E09F
:1022800050E00E947614FB01EA5FFE4F808188B91E
:1022900029C0C13031F560916E0170916F0180915C
:1022A0007001909171016A30710581059105B8F056
:1022B0000F2EFAE0CF2ED12CE12CF12CF02DA7011E
:1022C00096010E947614CA01B901A70196010E94E5
:1022D0007614FB01EA5FFE4F808188B903C018B80D
:1022E00001C018B8CC0FCC0FCC0FCBB9CF91FF9059
:1022F000EF90DF90CF90089560916E0170916F0123
:10230000809170019091710108956091730170E066
:1023100080E090E0089581B18F6081B98091730170
:10232000843019F48FE082B90895833019F487E07E
:1023300082B90895823019F486E082B90895813017
:1023400019F484E082B9089512B8089560931001D9
:1023500090934C0180934B0110924E0110924D01CD
:1023600010924A011092490108950F931F93CF9341
:10237000DF93CDB7DEB728970FB6F894DEBF0FBE58
:10238000CDBFE0914D01F0914E01309781F0149155
:1023900010FF06C010924E0110924D0100E06BC07C
:1023A0003196F0934E01E0934D0100E064C0E0915E
:1023B0004901F0914A01309709F449C0CF010196D3
:1023C00090934A0180934901E081E1110AC0109283
:1023D0004A011092490180E18093480100E010E039
:1023E0004AC08FE98E0F8A3170F4F0E0EE0FFF1FC4
:1023F000E858FF4F8591949190934E0180934D0141
:1024000000E010E038C08FEB8E0F8A3170F4F0E0FE
:10241000EE0FFF1FE854FF4F8591949190934E016A
:1024200080934D0100E010E026C080ED8E0F8A30D1
:1024300000F5F0E0EE0FFF1FEA53FF4F85919491F6
:1024400090934E0180934D0100E010E014C0809104
:102450004B0190914C0101E0009709F000E090934E
:102460004A018093490110924C0110924B0110E0F7
:1024700002C000E010E00E94190620911001FE0148
:102480003896CE010196112314F4208301C01082E6
:10249000110F3197E817F907B1F71982BE016F5F85
:1024A0007F4F8FE00E94FC0580914801882389F0CE
:1024B000815080934801002311F0882311F090E0AF
:1024C00003C091E001C091E081E0992329F080E010
:1024D00003C00023A1F3F7CF28960FB6F894DEBF10
:1024E0000FBECDBFDF91CF911F910F910895CF9374
:1024F000C82F8A3019F48DE00E9477129FB7907828
:1025000002C0992329F1809175018F3FD1F3F8948E
:10251000E091740181E08E0F80937401F0E0EA583D
:10252000FE4FC083809175018F5F8093750180910C
:1025300074018F3F11F410927401E1ECF0E080819E
:1025400080628083992339F0789480E090E005C020
:1025500081E090E002C080E090E0CF91089580910A
:1025600087028823E1F32FB72078F89480917502D1
:102570003091870290E0831B91095AF4E091750233
:1025800080918702F0E0E81BF109EA57FD4F808156
:102590000AC0E091750280918702F0E0E81BF10922
:1025A000EA58FD4F80819091870291509093870265
:1025B000222309F0789490E008951092740110920B
:1025C0007501109275021092870210928602409354
:1025D0004F01DC01CB01880F991FAA1FBB1F880F79
:1025E000991FAA1FBB1F9C01AD01220F331F441F5F
:1025F000551F60E072E18AE790E00E949814BA01EA
:10260000A9014F5F5F4F6F4F7F4FDB01CA011AF483
:102610000196A11DB11DB595A79597958795019731
:102620009093C5008093C400E1ECF0E088E18083E2
:10263000808180688083E8E8F2E081E191E0938323
:1026400082839183808308959091870281E0911124
:1026500001C080E0089510927502109287020895DB
:102660001F920F920FB60F9211242F938F939F9367
:10267000EF93FF9380917501882329F18091740174
:102680002091750190E0821B91095AF4E091740148
:1026900080917501F0E0E81BF109EB58FD4F908146
:1026A0000AC0E091740180917501F0E0E81BF10926
:1026B000EA58FE4F90818091750181508093750199
:1026C0009093C60005C0E1ECF0E080818F7D8083AF
:1026D000FF91EF919F918F912F910F900FBE0F90CF
:1026E0001F9018951F920F920FB60F9211242F93DF
:1026F0003F934F935F936F937F938F939F93AF938A
:10270000BF93CF93EF93FF93C091C60080914F0189
:10271000882349F0809175018F3F29F060E070E0D7
:102720008C2F0E94771280918702803120F081E007
:102730008093860218C0CD3009F4CAE0E09175029A
:1027400081E08E0F80937502F0E0EA58FD4FC08360
:10275000809187028F5F809387028091750280311C
:1027600011F410927502FF91EF91CF91BF91AF914B
:102770009F918F917F916F915F914F913F912F9199
:102780000F900FBE0F901F90189594B1906B94B955
:102790002C9A90E59CBD883021F0803211F0823077
:1027A00019F491E09DBD01C01DBC803269F028F490
:1027B000883071F0803161F00EC0803429F08038AB
:1027C00051F48CB581608CBD8CB582608CBD03C02A
:1027D0008CB581608CBD2C9808958EBD0DB407FE1C
:1027E000FDCF8EB508959F938F937F936F9389E06C
:1027F00092E09F938F930E9497150F900F900F90E8
:102800000F900F900F90089584E092E09F938F9324
:102810000E9497150F900F900895109250011092FA
:102820005101109252011092530116BC8CE787BDE2
:1028300082E084BD83E085BDEEE6F0E080818260C9
:10284000808385B3827085BB08952FB7F89460911B
:1028500050017091510180915201909153012223B6
:102860000CF4789408951F920F920FB60F921124D2
:102870002F933F934F935F936F937F938F939F9388
:10288000AF93BF93EF93FF939091460181E0892727
:10289000809346010E949510813021F48091460179
:1028A0000E942A118091500190915101A0915201F2
:1028B000B09153010196A11DB11D809350019093D9
:1028C0005101A0935201B0935301FF91EF91BF9139
:1028D000AF919F918F917F916F915F914F913F91B8
:1028E0002F910F900FBE0F901F901895A1E21A2EF6
:1028F000AA1BBB1BFD010DC0AA1FBB1FEE1FFF1FA4
:10290000A217B307E407F50720F0A21BB30BE40BF3
:10291000F50B661F771F881F991F1A9469F760953A
:102920007095809590959B01AC01BD01CF010895F4
:10293000052E97FB1EF400940E94AF1457FD07D09C
:102940000E94761407FC03D04EF40C94AF145095FB
:102950004095309521953F4F4F4F5F4F089590958B
:102960008095709561957F4F8F4F9F4F08958F92FF
:102970009F92AF92BF92CF92DF92EF92FF92CF934E
:10298000DF93EC01688179818A819B8161157105F2
:102990008105910521F464E279ED8BE597E02DE165
:1029A00033EF41E050E00E94981449015A019B0125
:1029B000AC01A7EAB1E40E944E186B017C01ACEEB9
:1029C000B4EFA50194010E945C18DC01CB018C0DD1
:1029D0009D1DAE1DBF1DB7FF03C00197A109B048E3
:1029E00088839983AA83BB83BC01CD019F77DF9144
:1029F000CF91FF90EF90DF90CF90BF90AF909F90DE
:102A00008F9008958F929F92AF92BF92CF92DF9254
:102A1000EF92FF926091000170910101809102019B
:102A200090910301611571058105910521F464E21E
:102A300079ED8BE597E02DE133EF41E050E00E9426
:102A4000981449015A019B01AC01A7EAB1E40E9424
:102A50004E186B017C01ACEEB4EFA50194010E940D
:102A60005C18DC01CB018C0D9D1DAE1DBF1DB7FF99
:102A700003C00197A109B048809300019093010120
:102A8000A0930201B0930301BC01CD019F77FF9099
:102A9000EF90DF90CF90BF90AF909F908F90089570
:102AA00060930001709301018093020190930301F0
:102AB0000895CF93DF93EC012B8120FF33C026FFD5
:102AC0000AC02F7B2B838E819F8101969F838E83EB
:102AD0008A8190E029C022FF0FC0E881F9818081BE
:102AE000082E000C990B009719F420622B831AC052
:102AF0003196F983E8830EC0EA85FB85099597FF37
:102B000009C02B81019611F080E201C080E1822B87
:102B10008B8308C02E813F812F5F3F4F3F832E83E1
:102B2000992702C08FEF9FEFDF91CF910895A0E02A
:102B3000B0E0EDE9F5E10C946F18AE01495F5F4F2D
:102B4000DA016D917D91AD0108E812E0F801828112
:102B50009381DC0113962C911397286013962C9384
:102B60000E94BD15D8011296ED91FC911397238117
:102B7000277F2383E4E00C948B18ABE0B0E0E3EC18
:102B8000F5E10C9461186C017B018A01FC0117824C
:102B90001682838181FFCCC1CE0101963C01F601F2
:102BA0009381F70193FD859193FF81917F018823A4
:102BB00009F4BAC1853239F493FD859193FF81916F
:102BC0007F01853229F4B60190E00E94B417E7CF67
:102BD000912C212C312CFFE1F315D8F08B3279F0B8
:102BE00038F4803279F08332A1F4232D20611DC0A6
:102BF0008D3261F0803369F4232D216016C0832D5E
:102C00008260382EE32DE4603E2E2AC0F32DF8605A
:102C10001DC037FC2DC020ED280F2A3040F08E3229
:102C2000B9F436FC81C1232D2064322E19C036FE42
:102C300006C08AE0989E200D1124922E11C0EAE071
:102C40002E9E200D1124222EF32DF0623F2E08C05F
:102C50008C3621F4832D8068382E02C0883641F4EA
:102C6000F70193FD859193FF81917F018111B3CF8E
:102C7000982F9F7D9554933028F40C5F1F4F9FE34E
:102C800099830DC0833631F0833771F0833509F0B5
:102C900059C021C0F801808189830E5F1F4F8824AD
:102CA0008394912C530113C02801F2E04F0E511C64
:102CB000F801A080B18036FE03C0692D70E002C02B
:102CC0006FEF7FEFC5010E94A9174C018201F32D20
:102CD000FF773F2E16C0280122E0420E511CF8015A
:102CE000A080B18036FE03C0692D70E002C06FEF96
:102CF0007FEFC5010E949E174C01F32DF0683F2E17
:102D0000820133FC1BC0822D90E088169906B0F436
:102D1000B60180E290E00E94B4172A94F4CFF50146
:102D200037FC859137FE81915F01B60190E00E94EA
:102D3000B41721102A9421E0821A91088114910479
:102D400071F7E8C0843611F0893641F5F80137FE95
:102D500007C060817181828193810C5F1F4F08C021
:102D600060817181072E000C880B990B0E5F1F4F3D
:102D7000F32DFF763F2E97FF09C0909580957095B3
:102D800061957F4F8F4F9F4FF0683F2E2AE030E0D4
:102D9000A3010E94F017882E861845C0853731F4AC
:102DA000232D2F7EB22E2AE030E025C0932D997F6F
:102DB000B92E8F36C1F018F4883579F0B5C0803758
:102DC00019F0883721F0B0C0E92FE061BE2EB4FEC3
:102DD0000DC0FB2DF460BF2E09C034FE0AC0292FA0
:102DE0002660B22E06C028E030E005C020E130E0C9
:102DF00002C020E132E0F801B7FE07C060817181B6
:102E0000828193810C5F1F4F06C06081718180E0D9
:102E100090E00E5F1F4FA3010E94F017882E8618C6
:102E2000FB2DFF773F2E36FE0DC0232D2E7FA22EC9
:102E3000891458F434FE0BC032FC09C0832D8E7EF9
:102E4000A82E05C0B82CA32C03C0B82C01C0B92CE7
:102E5000A4FE0FC0FE01E80DF11D8081803321F436
:102E60009A2D997EA92E09C0A2FE06C0B394B394F0
:102E700004C08A2D867809F0B394A3FC11C0A0FE8B
:102E800006C0B21488F4280C922C9B180EC0B21401
:102E900060F4B60180E290E00E94B417B394F7CFDB
:102EA000B21418F42B1802C0982C212CA4FE10C0C8
:102EB000B60180E390E00E94B417A2FE17C0A1FC07
:102EC00003C088E790E002C088E590E0B6010CC03E
:102ED0008A2D867859F0A1FE02C08BE201C080E203
:102EE000A7FC8DE2B60190E00E94B417891438F473
:102EF000B60180E390E00E94B4179A94F7CF8A94C9
:102F0000F301E80DF11D8081B60190E00E94B41735
:102F10008110F5CF222009F442CEB60180E290E084
:102F20000E94B4172A94F6CFF6018681978102C0D9
:102F30008FEF9FEF2B96E2E10C947D18FC0105903A
:102F4000615070400110D8F7809590958E0F9F1FAB
:102F50000895FC016150704001900110D8F78095F0
:102F600090958E0F9F1F08950F931F93CF93DF931C
:102F7000FB01238121FD03C08FEF9FEF2CC022FFB7
:102F800016C046815781248135814217530744F486
:102F9000A081B1819D012F5F3F4F318320838C93AE
:102FA000268137812F5F3F4F3783268314C08B01E3
:102FB000EC01FB010084F185E02D0995892BE1F6F8
:102FC000D80116968D919C911797019617969C9310
:102FD0008E931697CE01DF91CF911F910F91089597
:102FE000FA01AA27283051F1203181F1E8946F933A
:102FF0006E7F6E5F7F4F8F4F9F4FAF4FB1E03ED0E0
:10300000B4E03CD0670F781F891F9A1FA11D680F7D
:10301000791F8A1F911DA11D6A0F711D811D911DB0
:10302000A11D20D009F468943F912AE0269F112425
:103030003019305D3193DEF6CF010895462F477089
:10304000405D4193B3E00FD0C9F7F6CF462F4F70E4
:10305000405D4A3318F0495D31FD4052419302D042
:10306000A9F7EACFB4E0A6959795879577956795E8
:10307000BA95C9F700976105710508959B01AC01E8
:103080000A2E06945795479537952795BA95C9F70F
:10309000620F731F841F951FA01D08950E9498182A
:1030A000A59F900DB49F900DA49F800D911D11249C
:1030B0000895B7FF0C944E180E944E18821B930B74
:1030C00008952F923F924F925F926F927F928F92CC
:1030D0009F92AF92BF92CF92DF92EF92FF920F93A7
:1030E0001F93CF93DF93CDB7DEB7CA1BDB0B0FB6B1
:1030F000F894DEBF0FBECDBF09942A88398848886E
:103100005F846E847D848C849B84AA84B984C88403
:10311000DF80EE80FD800C811B81AA81B981CE0FFA
:10312000D11D0FB6F894DEBF0FBECDBFED010895DF
:10313000A29FB001B39FC001A39F700D811D1124F8
:10314000911DB29F700D811D1124911D0895F89459
:02315000FFCFAF
:1031520001000000E8033F065B4F666D7D077F6F4D
:103162000F00000003000000007712AF12000041C0
:10317200535445524F494453204259203435323931
:10318200363731300047414D45204F5645520000F9
:04000005008001472F
:00000001FF
